:02000002D0002C
:1040000000400D0080800D00000006000C0005013E
:084010000401BD0B00000000DB
:04401800A87B0D0074
:1040200009480A49884208B505D0094A824202D0A7
:10403000121A03F089FC0748074A0021121A03F0FC
:10404000ABFC014808BD00BF3CE60320DC7F0D004F
:10405000B8E60320B8E60320F0E7032070B5074E6A
:10406000074C02F0E5FCA41BA4080025A54200D1E2
:1040700070BD56F8043B98470135F7E7AC7F0D005B
:10408000D07F0D0000F062B808B500F0B3F9BDE8CC
:10409000084002F08FBC00F0A1BC00F09FBC00F013
:1040A000A5BC000008B5034A00210C2000F0D2FB9B
:1040B000FEE700BFF5450D000078B0FA80F040093A
:1040C00070470123037070477047006A0368DB681C
:1040D000184700000A4B10B50446036001F024F9AC
:1040E000214601F014FB02F089FB02F079FB204627
:1040F000044B40F8043B01F0F7F9204610BD00BF27
:10410000307C0D00187C0D0010B50446FFF7E2FF6F
:104110002046242102F0A3FD204610BD0EB410B5A8
:104120008DB00FAA016852F8044B0392002320209F
:10413000CDE90403CDE90042322004AA00F092FB4D
:104140000DB0BDE8104003B0704700002DE9F84302
:1041500000F058FA07EE900A1C4BF8EE677A01213E
:104160000220C3ED007A02F0D3FC0021042002F00B
:10417000CFFC0121032002F0CBFC15491548002398
:10418000092200F0B3FB002000F044FA4FF00009D0
:10419000804643F697260027002000F03BFAB0EB5C
:1041A000080461EB0905AF4208BFA64207D302F03D
:1041B00025FB02F018FB10B900F0A0FBECE702F0C1
:1041C0001DFBBDE8F84302F00EBB00BFD0E60320A4
:1041D00000E70320BC7B0D0038B50021022002F06F
:1041E000A8FC012000F022FC01220321042002F09F
:1041F000CCFC000200F47F4501220321042002F0E0
:10420000C4FC284384B20121022002F092FC63071F
:1042100009D4E00802F07CFE074B002202F0E2FE27
:1042200041EC100B38BD9FED020BFBE7AFF30080B4
:10423000000000000000F87F0000D03F2DE9F041B1
:104240002DED028BB0EE408AF0EE608A88B04549D1
:10425000454C464DDFF84C81454E464F04A802F0D0
:10426000C8F8B0EE480AF0EE680A0621684602F087
:104270003BF9694604A802F062F93F4902F06BF984
:1042800001683E48FFF74AFF684602F067F804A855
:1042900002F064F83A4B186802F04CFE53EC182B0D
:1042A00002F0E8FC03F058F9364B3060D3ED007AA9
:1042B000354B07EE100AF8EEE77AD3ED006AD8F82E
:1042C00000303B6067EE877AF8EEE66AFDEEE77A4B
:1042D000C5ED007AD4ED007AF8EEE77AE7EE267ABB
:1042E000FDEEE77AC4ED007A00F08CF907EE900A53
:1042F00097ED007A254AD6ED006A254B2549F8EE60
:10430000677AC8ED007A77EEC77A9FED237A87EE59
:10431000876AD2ED007A83ED006A76EEE77A1F4B6A
:10432000C2ED006A87EE867A2A68D3ED007AF8EE4D
:10433000E77A67EE277AFDEEE77AC1ED007A216829
:1043400017EE903A0A44D318154A07D50023136094
:10435000106808B0BDEC028BBDE8F081FF2BC8BF30
:10436000FF23F4E7D27B0D00C0E60320C4E6032060
:10437000C8E603200CE70320E17B0D0028E70320BB
:1043800044E6032040E60320D8E6032008E70320A4
:10439000D4E60320BCE6032000007A443CE6032078
:1043A000CCE60320D0E6032010B588B004460E49C1
:1043B00004A802F01EF80A222146684602F081F89D
:1043C000694604A802F0BBF8084902F0C4F8016885
:1043D0000748FFF7A3FE684601F0C0FF04A801F0FC
:1043E000BDFF08B010BD00BFE47B0D00FE7B0D00DB
:1043F00028E7032008B5FFF7EFFE064B83ED000B1F
:10440000FFF71CFFFFF7D0FFBDE8084040F6B830CB
:1044100000F00CBB00E7032070B5D0E90053142670
:10442000044606FB0356AE4204D0284601F096FF30
:104430001435F8E7206800F0D9FA204670BD8842AC
:10444000F8B504460D46164616D9904215D2A2F18B
:104450001406751AA1F114072C44B7421CD02CB1D4
:104460003146204601F0F6FF337C2374304601F0DC
:1044700075FF143E143CF0E70ED0B5420CD02CB1C1
:104480002946204601F0E6FF2B7C2374284601F0E4
:1044900065FF14351434F0E7F8BD2DE9F041002331
:1044A000C0E9003383604F689F4204460E4623DD17
:1044B0004FF0140808FB07F000F090FA0546D8B159
:1044C000D4E9001208FB0212FFF7B9FF206800F0E0
:1044D0008DFA2560A760D6E9007308FB0378B8451C
:1044E00008D03946284601F0CFFF3B7C2B741437A7
:1044F0001435F4E7736863602046BDE8F08100007E
:10450000F0B58DB00025CDE90055029502F076F9A1
:104510001E4C0646694603A8FFF7BFFF274603A9BE
:1045200006A8FFF7BAFF1A4B47F8043B06A909A8EB
:10453000FFF7B3FF09AA1E21384601F03BFA09A88C
:10454000FFF76AFF06A8FFF767FF124B236003A877
:104550002662FFF761FF104B236002F04FF94FF422
:10456000165102F039F900F0DFFE214601F0B4F9EE
:104570006846FFF751FF094A0949204602F06AFBE5
:104580002946012000F096F90DB0F0BDDCE60320CD
:10459000187C0D005C7D0D00307C0D00B8E603201A
:1045A000D5400D0008B5024B1B685B6C019308BD3C
:1045B0004802030008B5024B1B689B6C019308BDC1
:1045C0004802030008B5024B1B68DB6C019308BD71
:1045D0004802030008B5024B1B685B6D019308BDE0
:1045E0004802030008B5024B1B685B68019308BDD5
:1045F0001802030008B5024B1B68DB68019308BD75
:104600001802030008B5024B1B685B69019308BDE3
:104610001802030008B5024B1B68DB6D019308BD4F
:104620001802030008B5024B1B689B68019308BD84
:104630002C02030008B5024B1B68DB68019308BD20
:104640002C02030008B5024B1B681B69019308BDCF
:104650002C02030008B5024B1B685B69019308BD7F
:104660002C02030008B5024B1B681B6A019308BDAE
:104670002802030008B5024B1B685B6A019308BD62
:104680002802030008B5024B1B689B6A019308BD12
:104690002802030008B5024B1B68DB6A019308BDC2
:1046A0002802030008B5024B1B681B6B019308BD71
:1046B0002802030008B5024B1B685B6B019308BD21
:1046C0002802030008B5024B1B681B6C019308BD50
:1046D0002802030008B5024B1B685B69019308BD03
:1046E0006402030008B5024B1B689B68019308BD78
:1046F0006802030008B5024B1B68DB68019308BD24
:104700006802030008B5024B1B68DB69019308BD12
:104710003002030008B5024B1B681B6A019308BDF9
:104720003002030008B5024B1B681B68019308BDEB
:104730003C02030008B5024B1B689B68019308BD4F
:104740003C02030008B5024B1B68DB68019308BDFF
:104750003C02030008B5024B1B681B69019308BDAE
:104760003C02030008B5024B1B685B69019308BD5E
:104770003C02030008B5024B1B689B69019308BD0E
:104780003C02030008B5024B1B68DB69019308BDBE
:104790003C02030008B5024B1B681B6A019308BD6D
:1047A0003C02030008B5024B1B689B6A019308BDDD
:1047B0003C02030008B5024B1B68DB6A019308BD8D
:1047C0003C02030008B5024B1B681B68019308BD3F
:1047D0004C02030008B5024B1B685B68019308BDDF
:1047E0004C02030008B5024B1B689B68019308BD8F
:1047F0004C02030008B5024B1B681B69019308BDFE
:104800004C02030008B5024B1B685B69019308BDAD
:104810004C02030008B5024B1B689B69019308BD5D
:104820004C02030008B5024B1B68DB69019308BD0D
:104830004C02030008B5024B1B681B6A019308BDBC
:104840004C02030008B5024B1B689B6A019308BD2C
:104850004C02030008B5024B1B685B6B019308BD5B
:104860006002030008B5024B1B685B6D019308BD35
:104870006002030008B5024B1B68DB6E019308BDA4
:104880006002030008B5024B1B681B6F019308BD53
:104890006002030008B5024B1B685B68019308BD0A
:1048A0002002030008B5024B1B685B69019308BD39
:1048B0002002030008B5024B1B68DB6A019308BDA8
:1048C0002002030008B5034B1B68D3F8883001931E
:1048D00008BD00002002030008B5034B1B68D3F895
:1048E0009430019308BD00002002030008B5024B7C
:1048F0001B681B68019308BD4402030008B5024B06
:104900001B689B68019308BD4402030008B5024B75
:104910001B68DB6B019308BD4402030008B5024B22
:104920001B685B68019308BD4002030008B5024B99
:104930001B689B68019308BD4002030008B5024B49
:104940001B68DB68019308BD4002030008B5024BF9
:104950001B681B69019308BD4002030008B5024BA8
:104960001B685B69019308BD4002030008B5024B58
:104970001B689B69019308BD4002030008B5024B08
:104980001B68DB69019308BD4002030008B5024BB8
:104990001B681B6A019308BD4002030008B5024B67
:1049A0001B681B6B019308BD4002030008B5024B56
:1049B0001B685B6B019308BD4002030008B5024B06
:1049C0001B681B6C019308BD4002030008B5024B35
:1049D0001B685B6C019308BD4002030008B5024BE5
:1049E0001B681B68019308BD1C02030008B5024B3D
:1049F0001B685B68019308BD1C02030008B5024BED
:104A00001B689B68019308BD1C02030008B5024B9C
:104A10001B685B6A019308BD1C02030008B5024BCA
:104A20001B685B6C019308BD1C0203000021FFF7AB
:104A300039BF10B5036804469B689847A368013BDB
:104A4000A3602BB923682046DB68BDE810401847F7
:104A500010BD10B50446006808B1FFF7ABFD204655
:104A600010BD10B58368044613B103220146984770
:104A7000204610BD70B5D0E90053044605EB03167F
:104A8000AE4204D0284601F069FC1035F8E72068F2
:104A9000FFF7ACFF204670BD0B68036013B15A6886
:104AA00001325A60704710B50446006828B1436867
:104AB000013B43600BB9FFF7BCFF204610BD00006F
:104AC00010B5064C002320462360FFF76BFD2046FF
:104AD000034A0449BDE8104002F0BCB810E70320C7
:104AE000B8E60320534A0D00002240681146FFF744
:104AF0004DBF002240681146FFF758BF40680022B2
:104B0000FFF74CBF4068002281F00101FFF736BF7C
:104B1000002340681A461946FFF728BF0023406863
:104B20001A461946FFF71ABF002240681146FFF7E0
:104B30000DBF002240681146FFF7F8BE4068002212
:104B40000221FFF7FBBE002340681A46FFF7E6BECE
:104B5000024B03225A60024A1A60704714E703208E
:104B6000487C0D007047F8B5064615460C468F1870
:104B7000BC4206D0336814F8011B9B683046984746
:104B8000F6E72846F8BD007C0022FFF76BBD007CED
:104B90000021FFF76FBD007C0021FFF773BD007C93
:104BA0000021FFF777BD007C0021FFF77BBD10B52A
:104BB0001421044602F053F8204610BD10B54FF4FE
:104BC0007A73044608460021C4E90113034B2360AD
:104BD00020741146FFF776FD204610BD847C0D0041
:104BE000704710B51821044602F039F8204610BD70
:104BF000F0B5037D062B8DB00E4600F104074FF093
:104C0000000412D000F1080515F8011D0A223046F3
:104C100001F0D9FAAF42044419D0002CF4D02E216F
:104C2000304601F0C1FA0444EEE72F236A463946C4
:104C30000A208DF80040FFF74DFD684602F001FFA5
:104C400033680246DB68694630469847044620468A
:104C50000DB0F0BD10B5054B0446112240F8043BE1
:104C6000002102F099FE204610BD00BFAC7C0D0073
:104C70000346074A10B543F8042B01F1100251F81E
:104C8000044B43F8044B9142F9D10A781A7010BDD5
:104C9000AC7C0D0010B59DF8084044EA032343EABC
:104CA000024242EA016104234160037510BD000025
:104CB00013B5054B0360CB7800938B784A7809785D
:104CC000FFF7E8FF02B010BDAC7C0D0000F110034F
:104CD000012213F8101C0129184608D153F8041CAE
:104CE00002EB4102013A03F11003F2D170470229AD
:104CF00004BF53F8041C5218F4E70EB4F0B588B0A2
:104D000000AF07F13405102155F8042B7A600446F2
:104D10002B467818FD60FFF779FE0F287A681AD9BC
:104D200000F1080323F007036E46ADEB030D411CB1
:104D30002B466846FD60FFF769FE021E04DD23680E
:104D400069469B6820469847B5462037BD46BDE872
:104D5000F04003B070470028F7D0236802469B68F4
:104D600007F1100120469847EFE710B503680446A5
:104D70009B689847A368013BA3602BB92368204632
:104D8000DB68BDE81040184710BD07B503688DF813
:104D900007109B6801220DF10701984703B05DF8E9
:104DA00004FB38B50B6803604D6843689D420446B8
:104DB0000CD015B16B6801336B60606828B1436833
:104DC000013B43600BB9FFF7D0FF6560204638BD5B
:104DD0000B461146002210B5C0E90022044683604C
:104DE0000BB9204610BDFFF7DCFFFAE78368EBB193
:104DF0001A78032A1AD8DFE802F00417021B0520EC
:104E0000704702685B685268D05C2D2812D0A0F110
:104E10003003092B0ED974280ED066280CD0A0F1CF
:104E20006E03584258417047062070470020704773
:104E300004207047032070470220704710B50446D5
:104E4000FFF7D4FF02280ED0C31EDBB2012B14D80B
:104E50002268A36850685B68BDE810400A22002100
:104E6000184402F097BE2268A36852685B68D05C61
:104E7000A0F174035842584110BD0020FCE7000027
:104E800038B50023C0E9003304460E48C4E90203E4
:104E9000A9B10B78032B06D08BB9136858684B68FF
:104EA000C35C6E2B07D013684D6858688B68284424
:104EB0005B1BA060E36011462046FFF772FF2046AF
:104EC00038BD00BF1E7D0D0038B500250B46C0E97A
:104ED0000055C0E90255C0E90455044611464BB1DE
:104EE0001A78012A06D103F11002DB68826043615F
:104EF000FFF757FF204638BD10B54369044663B13C
:104F00008068E060013B1030A0602061636113B1F4
:104F1000FFF7DCFEA060012000E0184610BD10B5D0
:104F20007D210446FFF731FF01232371204610BD88
:104F300008B50379012B02D0022B04D008BD2C2127
:104F4000FFF723FFFAE73A21FAE710B50446FFF727
:104F5000EFFF20467B21FFF718FF00232371204637
:104F600010BD000013B504460191FFF7E1FF23686F
:104F7000019ADB68034920469847012320462371A4
:104F800002B010BDB87C0D0013B504460191FFF7C7
:104F9000CFFF2368019ADB68034920469847012325
:104FA0002046237102B010BDBB7C0D002DE9F041FD
:104FB0000D4617462221DFF8A08004462F44FFF754
:104FC000E4FE2946BD422A4638D015F8016B222E50
:104FD00003D05C2E01D01F2EF4D82368521A9B6890
:104FE000204698475C212046FFF7CFFE0D2E0AD8B9
:104FF000072E1CD9A6F10803052B18D8DFE803F00B
:105000000D0F11171315222E01D05C2E0FD1314632
:105010002046FFF7BAFE2946D4E76221F8E774215B
:10502000F6E76E21F4E76621F2E77221F0E72368E4
:105030003246DB68414620469847ECE78D4204D073
:1050400023686A1A9B682046984722212046FFF76A
:105050009CFEBDE8F08100BFBE7C0D0013B5044688
:10506000CDE90021FFF764FF2046DDE90021FFF7CD
:105070009DFF02232046237102B010BD13B50446E4
:10508000CDE90021FFF754FF2046DDE90021FFF7BD
:105090008DFF01232046237102B010BD8068036894
:1050A000DB6818477047084611B10B685B68184702
:1050B000704770477047704738B504460D46006822
:1050C0002E2102F0A2FC2368C31A2B6023B10378BF
:1050D00003B1013023682060184638BD10B50C219B
:1050E000044601F0BCFD204610BD10B50421044665
:1050F00001F0B5FD204610BD10B50421044601F0B5
:10510000AEFD204610BD08B502F089FCB0FA80F073
:10511000400908BD10B50C4601F070FB844210D068
:1051200001F0C4FA844205D101F0C0FABDE8104094
:1051300001F0B9BA2CB1236820465B68BDE8104085
:10514000184710BD13B504460846019102F079FCDA
:1051500001990246204602B0BDE81040FFF78EBF1D
:1051600013B504460846019102F06BFC23680199CF
:10517000DB680246204602B0BDE81040184707B57C
:1051800003688DF80710DB6801220DF107019847CD
:1051900003B05DF804FB0EB403B503AB002153F874
:1051A000042B006A019301F02CF802B05DF804EBC7
:1051B00003B070472DE9F74FD0E900954FF0140880
:1051C00008FB05F50093AB10184D17465D434C46A0
:1051D000002D23DD6E1008FB06F004EB000A3A46B2
:1051E000BAF804B0205801915F4528BF5A4602F032
:1051F00030FC0199012378B95F4503D1009A1370FF
:105200003546E5E78CBF012000200028F8D0AE1B12
:105210000AF11404013EF3E7C00FF6E7A4EB09041A
:105220000248A410604303B0BDE8F08FCDCCCCCCD5
:105230007FB50369067E01910BB301B3002500F130
:105240000C04039503A901A8FFF736FF0146B0B18E
:105250000DF10B03039A8DF80B502046FFF7AAFFC0
:105260009DF80B305BB12468142303FB004000F170
:105270000804B0F90630002BA8BFDEB2E2E73046E2
:1052800004B070BD10B50A4C2378BFF35B8FDB0709
:105290000BD42046FEF710FF38B12046FEF711FF71
:1052A000044A0549054801F0D5FC044810BD00BF7B
:1052B00020E70320B8E60320B5500D0048E60320A0
:1052C00010B50A4C2378BFF35B8FDB070BD4204665
:1052D000FEF7F2FE38B12046FEF7F3FE044A054918
:1052E000054801F0B7FC044810BD00BF24E70320C7
:1052F000B8E60320B3500D004CE6032038B5002576
:105300000446C0E90055C0E904558560856140F850
:10531000245FFFF747F9FFF7B5FFE061FFF7D0FF24
:1053200025732062204638BD10B50B4C2378BFF39F
:105330005B8FDB070ED42046FEF7BEFE50B1074858
:10534000FFF7DCFF2046FEF7BCFE054A054903488F
:1053500001F080FC014810BD1CE703202CE703206E
:10536000B8E6032099570D00024A03490348002379
:10537000FFF788BA75560D0001560D0081550D00D6
:1053800000231A4619461846FFF77CBA37B50D694F
:1053900051F8043B0093044601A8FFF77DFB6A46E1
:1053A00029462046FFF714FD01A8FFF77CFB2046A5
:1053B00003B030BD37B58D6851F8043B0093044607
:1053C00001A8FFF769FB6A4629462046FFF77CFDE6
:1053D00001A8FFF768FB204603B030BD37B5CD68A4
:1053E00051F8043B0093044601A8FFF755FB6A46B9
:1053F00029462046FFF744FD01A8FFF754FB20464D
:1054000003B030BD70B58AB00D46014604A8FFF761
:10541000D1FF144E04A8FFF76FFDE8B104A9684658
:10542000FFF7DCFF02983146FFF76DFE044610B12E
:105430002C1E18BF012401A8FFF735FB002CE9D072
:1054400004A96846FFF7A2FF6846FFF7F7FC28604B
:1054500001A8FFF728FBDDE705A8FFF724FB0AB04A
:1054600070BD00BFC47C0D0037B50C462046124904
:10547000154602F0D4FA48B901F0C0F94FF41651BC
:1054800001F0AAF901F0BAF903B030BD0B4920468A
:1054900002F0C5FA70B94FF4165301A928460193DA
:1054A000FFF7B0FF01F002F9019901F0F9F801F0FE
:1054B000FDF8E9E70020E7E7C97C0D00D07C0D008E
:1054C00070B5D0E900531426044606FB0356AE42DD
:1054D00005D005F10800FFF7F3FF1435F7E7206862
:1054E000FFF784FA204670BD10B504460C30FFF774
:1054F000E7FF2046FFF7BEFA204610BD10B5044B6B
:10550000044640F8043BFFF7EFFF204610BD00BF04
:10551000187C0D0010B50446FFF7F0FF204624214B
:1055200001F09DFB204610BD10B5034B03600446FF
:10553000FFF7E4FF204610BD747D0D0010B5044652
:10554000FFF7F2FF2046242101F089FB204610BD21
:105550000022C0E9002210B582600C6804604C682B
:1055600044608C680A604A6084608A6010BD10B52F
:10557000036804461868FFF72DF8204610BD0000A8
:105580002DE9F04F87B0804603931C4B5B68C3F353
:105590000803894616466BB9FFF7C6FE044600F1BC
:1055A0002403406A0593FFF70DF8237B2BB105A870
:1055B000FFF7DDFF07B0BDE8F08F01232373D4E9C7
:1055C00000535FFA89F905EB830AAA4512D055F812
:1055D000047B3146381DFFF72BFE8145F5D33B6830
:1055E000039A0092D3F808B04A46334641463846FB
:1055F000D847EAE700232373D9E700BF00ED00E0B6
:105600002DE9F74F9B461A4B5B68C3F308038046AE
:10561000894616466BB9FFF787FE044600F124035E
:10562000406A0193FEF7CEFF237B2BB101A8FFF761
:105630009EFF03B0BDE8F08F01232373D4E900532C
:10564000F6B205EB830A55450ED055F8047B594652
:10565000381DFFF7EDFD8642F5D33B684A46DB680F
:10566000414638469847EEE700232373DEE700BF44
:1056700000ED00E02DE9F341164B5B68C3F308032E
:1056800005460F461BBBFFF74FFE00F124030446FF
:10569000406A0193FEF796FFD4E90063462406EBC7
:1056A0008308B04509D101A8FFF761FFA542B4BF47
:1056B0000020012002B0BDE8F08156F8040B394605
:1056C0000430FFF7B5FD8442A8BF0446E9E7002097
:1056D000F0E700BF00ED00E070B50446D0E900023D
:1056E0000B4600EB8202824207D001461D6851F84A
:1056F000046BAE4203D00846F5E7002070BD521A95
:1057000002F030F96368013B63600120F6E71FB5E2
:1057100000F124030446406A01910393FEF752FF0F
:1057200001A92046FFF7D8FF18B163680BB9FFF74E
:1057300027FE03A8FFF71BFF04B010BD70B5D0E92A
:1057400004561823044603FB0656AE4215D005F155
:1057500010012046FFF7C0FF63680BB9FFF710FE8A
:10576000E06929690368DB689847696919B1206AAB
:105770000368DB6898471835E7E7D4E9045318262F
:1057800006FB0356AE4204D0284600F0E7FD18356C
:10579000F8E70023636170BD73B50446FFF7F0FDC1
:1057A00004F12403606A0193FEF70CFF2046FFF723
:1057B000C5FF01A8FFF7DBFE606A08B1FEF7FAFE3D
:1057C000D4E90453182606FB0356AE4204D02846FB
:1057D00000F0C4FD1835F8E72069FFF707F92068E5
:1057E000FFF704F9204602B070BD8842F8B50646BE
:1057F0000C46154627D9904226D2A2F114056C1A00
:10580000A1F1140704440026AF423DD0A4B12B6897
:105810002360AB88A380B5F90630E380C4E9026653
:105820002661AB68A360AE60E368EA68E260EB60A3
:1058300023692A6922612B6105F10800FFF740FE08
:10584000143D143CE0E71FD00027AC421CD0A6B1A9
:1058500023683360A388B380B4F90630F380C6E9C7
:1058600002773761A368B360A760F368E268F2600B
:10587000E360336922693261236104F10800FFF7B4
:105880001FFE14341436E0E7F8BDF8B5D0E9015333
:105890009D4204460E4617460DDB0135002D00687B
:1058A00004DDA900FFF7AAF818B9F8BDFFF79EF8C4
:1058B00000202060A5602568626805EB86019200E3
:1058C000A2EB8602081D02F04DF845F826706368C9
:1058D000013363600120E8E737B500F12403044693
:1058E000406A01930D46FEF76DFED4E9003103EBEB
:1058F000810083421A460BD01268AA4203F10403C6
:10590000F7D101A8FFF733FE0025284603B030BDCC
:105910002A462046FFF7B9FF05460028F1D0636804
:10592000012B01D1FFF720FD01A8FFF720FEECE7D6
:105930008842F8B504460D46164614D9904213D253
:10594000A2F11006751AA1F110072C44B74218D025
:105950001CB13146204600F07DFD304600F0FEFCD3
:10596000103E103CF2E70CD0B5420AD01CB12946DB
:10597000204600F06FFD284600F0F0FC1035103492
:10598000F2E7F8BD70B50E1E054611DD3001FFF7D8
:1059900025F8044658B1D5E9001201EB0212FFF7D1
:1059A000C7FF2868FFF722F82C60AE60012070BDA9
:1059B0000024F6E72DE9F04F914697B000230391BC
:1059C000D9F804100C9346229942C0E90033C0E98B
:1059D0000233C0E90433CDE90A330446027623DCFE
:1059E000D9E90057142303FB0757AF423BD02946A0
:1059F0000DA800F02FFD0DA911A80B9E00F02AFDA7
:105A0000DDE90B1399421BDA0A9B0B9A03EB06168E
:105A100003EB0212314606F11000FFF789FFEEB9E1
:105A20000B9B01330B9311E00AA8FFF7ABFF002893
:105A3000D6D10AA8FFF71EF8204617B0BDE8F08FB0
:105A400001310AA8FFF79EFF0028DDD111A800F060
:105A500085FC0DA800F082FC1435C6E711A930467C
:105A600000F0F8FCDCE70026CDE90D660F9637461E
:105A70004FF0140ADDE90A239E4280F29780330139
:105A8000D35808930BB90136F4E70AFB06F30997DC
:105A900002930DAD09A908A8FFF70EFB8346002865
:105AA000F1D00146099A8DF81F700DF11F032846A9
:105AB000FFF780FB9DF81F800190B8F1000F66D1C1
:105AC000BDF82430ADF84830CDE913884FF6FF73A8
:105AD000CDF844B0ADF84A30CDF85480D5E9013264
:105AE00093421ADB03F1010BBBF1000F4ADD0AFB05
:105AF0000BF0FEF773FF0490002845D0D5E90012A3
:105B00000AFB0212FFF771FE049B28680493FEF75C
:105B10006DFF049B2B60C5F808B0019BD5F800B061
:105B20006A680AFB03F30BEB030101F114000AFBA3
:105B300002B204910593FFF758FE0499A9B1059BA1
:105B4000119A4BF80320BDF848308B80BDF94A30DC
:105B5000CB80C1E902770F61139B8B60149B139775
:105B6000CB60159B14970B6115976B6801336B60C5
:105B700013A8FFF7A5FCB8F1000F08D00DA8FFF798
:105B80009FFC56E74346C0E74FF00108F0E7019B52
:105B90002D680AFB0355089B1B782BB9D9F80030F8
:105BA000029A13441B7CEB80083573E7216822605E
:105BB00062686360A3680B920C9A0C93E368A2601E
:105BC0000D9A0D932369E2600E9A0E936369226128
:105BD0000F9A0F93039B0A9162612376CEE7000030
:105BE0007FB50546094B45F8043B04460E4601A81F
:105BF0001146FEF752FC01AA31462846FFF7DAFEAD
:105C000001A8FEF709FC204604B070BD187C0D0009
:105C1000F0B50F4687B026490C9C384616461D46FF
:105C200001F0FDFE00BBE4B129466846FFF790FC99
:105C30002049242001F015F8054670B1694603A8F3
:105C4000FEF72BFC03AA31462846FFF7C9FF03A83D
:105C5000FEF7E2FB184B2C622B606846FEF7DCFB7C
:105C60002C46204607B0F0BD1449384601F0D7FE57
:105C7000E0B9002CF5D029466846FFF769FC0D49CC
:105C8000242000F0EEFF05460028E6D0694603A870
:105C9000FEF703FC03AA31462846FFF7A1FF03A83D
:105CA000FEF7BAFB064B2B602C62D6E70024D8E740
:105CB000D87C0D00A87E0D00747D0D00DC7C0D00ED
:105CC0005C7D0D00014B024A1A60704728E70320F3
:105CD000ED7C0D002DE9F047089DD0F8209004469A
:105CE0000E461746984600F089FD81454CD02B7929
:105CF000190704D56A6954492046FFF74CFAB8F1F0
:105D0000000F0DD05B212046FFF739FA41462046AF
:105D1000FFF726FA23684D49DB68022220469847A0
:105D20002B79DA0723D5D5F808802F21404601F0DA
:105D3000A2FE08B100F1010841462046FFF710FA23
:105D40002B799B0708D53A212046FFF718FAEA6815
:105D50003F492046FFF71FFA2A79236812F0040F03
:105D6000DB6814BF3B493C490222204698472B7907
:105D700058071DD529690B461A4613F8010B60B167
:105D8000202808D11946F7E7344800F066F90028C2
:105D9000ADD0BDE8F0872828EED12368521ADB6821
:105DA0002046984723682E49DB68042220469847FE
:105DB00000213846FEF75EFD01462046FFF7D0F988
:105DC00023682549DB680222204698471EB13146E8
:105DD0002046FFF7C5F92B7913F0300F2CD023683C
:105DE0002049DB680222204698472B79D9060AD53C
:105DF00023681D49DB68072220469847AA691B498A
:105E00002046FFF7C8F92B799A0611D5DB0605D590
:105E100023681049DB68022220469847236814490A
:105E2000DB6820460A229847E9692046FFF798F97F
:105E30005D212046FFF7A3F923680E49DB68204661
:105E40000222BDE8F0471847F17C0D00F87C0D00F8
:105E5000B87C0D00FB7C0D00007D0D0054E7032095
:105E6000FE7C0D00037D0D00067D0D000E7D0D00F6
:105E7000117D0D001C7D0D002DE9F04385B0D0F89B
:105E800020900C9C05460F4690461E4600F0B6FC3E
:105E9000814505D1494800F0E0F8002840F08A80AB
:105EA0002B6A474A01924FF0000901A803938DF82D
:105EB0000890FFF74AF849464046FEF7DBFC4149A7
:105EC0008046012201A8FFF7C9F84146FFF73AF9D9
:105ED0003FB13D49012201A8FFF7C0F83946FFF75D
:105EE00031F93EB13949012201A8FFF7B7F831462F
:105EF000FFF728F92379DF070ED5A6682F21304652
:105F000001F0B9FD00B1461C3149012201A8FFF79B
:105F1000A5F83146FFF716F923799E0707D52D49D5
:105F2000022201A8FFF79AF8E168FFF71BF823792E
:105F3000580714D5266933461F4613F8012B2AB19A
:105F4000202A01D11E46F7E7282AF5D1224902224C
:105F500001A8FFF783F8BA1B3146FFF78FF82379C2
:105F6000190707D51D49012201A8FFF777F86169D4
:105F7000FFF70AF82379DA0608D5042218490DEB51
:105F80000200FFF76BF8A169FEF7ECFF23799B068F
:105F900007D51449062201A8FFF760F8E169FFF769
:105FA000D1F801A8FEF7BBFF286A0F490368022257
:105FB000DB68984705B0BDE8F08300BF54E70320D5
:105FC000447D0D00CE7C0D001F7D0D00217D0D0058
:105FD000237D0D00257D0D00287D0D002B7D0D00FE
:105FE0002D7D0D00327D0D001C7D0D0000234068CD
:105FF0001A46FEF793BC406800220221FEF79EBCC1
:10600000002240681146FEF791BC0022406811460C
:10601000FEF79CBC002340681A461946FEF79EBC5A
:10602000002340681A461946FEF7A0BC40680021CC
:10603000FEF7C4BC40680021FEF7C8BC40680022DF
:1060400081F00101FEF79ABC40680022FEF7A6BC71
:10605000002240681146FEF7A9BC002240681146A4
:10606000FEF794BC2DE9F043002495B016460D468A
:106070000746FEF7EFFD214618220EA8009401F016
:106080008BFC4023CDE90C3421466B460CAA3046EC
:10609000FEF730FB044600284CD102460121686817
:1060A000FEF754FC0221804622466868FEF74EFC4B
:1060B000009E81462146002E3CD000293AD17368CB
:1060C000022B03D00A2B11D0F669F4E7B8F1000FC8
:1060D0000AD0716906A8043107ADFEF7E9FD0FCDBE
:1060E0003C1D0FC42B6823704146EDE7B9F1000F4A
:1060F00001D14946E8E77469102201A801F04CFC7F
:1061000006238DF8143001AD04F108031834186823
:1061100059682A4603C20833A3421546F7D101A99C
:1061200006A807ADFEF7A4FD0FCD3C1D0FC42B68DC
:106130002370DEE70098FEF7D5FA384615B0BDE8C3
:10614000F0830000024B034A1A6000225A60704735
:1061500054E70320BC7D0D00F8B506460D468F18A8
:106160000024BD420CD0336815F8011B9B683046F3
:106170009847031E01DB1C44F3E7002C08BF1C46B4
:106180002046F8BD13B50446084659B1019101F007
:1061900058FC23680199DB680246204602B0BDE83E
:1061A0001040184702B010BD03689B68184738B507
:1061B0000D210546FFF7F8FF0A2104462846FFF7A0
:1061C000F3FF204438BD30B58BB000238DF8243068
:1061D000012A98BF0A2209AC0D46B1FBF2F101FB7E
:1061E000125303F0FF03092B94BF30333733DBB274
:1061F000AA4204F8013DEFD92146FFF7C3FF0BB0D7
:1062000030BD2DE9F04186B000AF05460E46381D81
:10621000142114463B60FEF7F9FB13280ED8391DF4
:106220002846FFF7AFFF04461EB12846FFF7BFFF21
:10623000044420461837BD46BDE8F08100F108034C
:1062400023F00703E846ADEB030D2246411C3B68F3
:106250006846FEF7DBFB69462846FFF793FF0446D6
:10626000C546E1E710B50446FEF7FBFB204610BD2E
:106270000348044A04490023836000F0EBBC00BFDC
:106280005CE70320B8E6032065620D0010B5044604
:1062900008462170FEF736FA00236360204610BDE1
:1062A0002DE9F04757EC106B80460C4610EE100AB3
:1062B00000220023394601F007F928B107F1004315
:1062C0001F462D2304F8013B00234FF001090A2249
:1062D000D9B2884503D902FB09F90133F8E74846EA
:1062E00000F016FE32463B4600F07CFE06460F46A6
:1062F00001F09AF905468A4600F03EFE02460B463A
:106300003046394600F0B6FC134B002201F0F0F89D
:1063100010B101354AF1000A4A462846D3175146C2
:1063200001F06AF90123154621460A2200F0DFFA3E
:10633000B8F1000F0DD0204601F083FB2E23211869
:1063400023540A22434628460131BDE8F04700F0B5
:10635000CEBABDE8F08700BF0000E03F10B50446AC
:106360000068FEF743FB204610BD10B504460068E8
:1063700008B1FEF73BFB0023C4E90133236010BDE5
:1063800038B504460D4600680131FEF737FB10B101
:10639000C4E90005012038BD10B50368044623B1E7
:1063A00043688B4201D3012010BD2046FFF7E8FF70
:1063B0000028F9D0A368002BF5D122681370F2E70A
:1063C00037B50D46114601920446FFF7E5FF019AE5
:1063D00028B92046FFF7C9FF204603B030BDA260B0
:1063E0002946206801F0B0FA2268A3680021D15440
:1063F000F2E7002313B5C0E900330446836003735A
:1064000041B10846019101F01CFB0199024620466A
:10641000FFF7D6FF204602B010BD38B5054600682C
:106420000C4668B16A688B689A4207D3096801F024
:1064300000FBA368AB600023A36038BDFEF7D6FA6B
:1064400023682B6063686B60A368AB600023C4E9BA
:106450000033F1E710B50023C0E900330446836040
:106460000373FFF7DAFF204610BD884210B50446DB
:1064700005D00B682BB18A681946FFF7A1FF2046AB
:1064800010BDFFF772FFFAE710B500230446C0E91C
:10649000003383600373FFF7E8FF204610BD13B598
:1064A000044659B10846019101F0CBFA0199024620
:1064B0002046FFF785FF204602B010BDFFF755FFCD
:1064C000F9E710B504468AB00023C4E90033A3609D
:1064D0002373084601A900F035FA01A92046FFF709
:1064E000DEFF20460AB010BD10B504468AB0002376
:1064F0000846C4E90033A360237301A9C0B2FFF7C3
:10650000CFFE01A92046FFF7CAFF20460AB010BD02
:1065100070B505460E4609B9002070BD6AB18468A1
:1065200014442146FFF738FF0028F5D02868AB68EF
:106530003146184401F07DFAAC600120EDE710B55A
:106540008A6809680446FFF7E3FF10B92046FFF7A1
:106550000CFF204610BD13B5044629B92046FFF7AD
:1065600004FF204602B010BD0846019101F069FA0F
:10657000019902462046FFF7CBFF0028EED0F0E756
:1065800010B50446006818B1FEF730FA0023236006
:1065900010BD10B50446FFF7F3FF204610BD000004
:1065A00010B5094B094C022200201A60084B2060EC
:1065B000A080A071A360FEF76DF92046054A064948
:1065C000BDE8104000F046BB78E703206CE70320ED
:1065D0000000FFFFB8E6032093650D00024B1A6828
:1065E000024B1A60704700BF50E603207CE703208F
:1065F00070474174704708B5007CFEF7D3F820EA75
:10660000E07008BD08B5007CFEF7A4F820EAE07051
:1066100008BD08B5007CFEF7ADF840EAE07008BDA3
:1066200008B5007CFEF79EF840EAE07008BD007CEB
:10663000FEF7A8B837B5457C04462DB1207C03B0E1
:10664000BDE83040FEF77EB8007C0191FEF7AAF865
:1066500000280199F2DC284603B030BD10B51421A2
:10666000044600F0FCFA204610BD000010B54FF0C3
:10667000000C0446084611464FF47A72C4E901C280
:10668000044A22600122207462741A46FEF74AF816
:10669000204610BD147E0D00007C0023FEF78AB852
:1066A0000022FFF7F9BF007CFEF744B8F7B51B4C9A
:1066B00026684EB98420FDF7EEFC054618B1842209
:1066C000314601F069F92560154D2F684FB98420D6
:1066D000FDF7E1FC064618B18422394601F05CF969
:1066E0002E60104E3178BFF35B8F11F0010112D193
:1066F00030460191FDF7E0FC019960B122682B68FA
:106700000948FFF7B3FF3046FDF7DBFC074A0849AD
:10671000054800F09FFA044803B0F0BD84E7032069
:1067200088E7032080E703208CE70320B8E60320F6
:10673000F1650D0041747047704708B50021007C79
:10674000FEF768F840EAE07008BD08B50121007C5A
:10675000FEF760F840EAE07008BD08B5007CFEF77F
:1067600051F820EAE07008BD08B5007CFEF742F859
:1067700020EAE07008BD13B50446007C0191FEF7E5
:1067800041F80028019901DC607C20B1207CFEF7F3
:1067900049F820EAE07002B010BD007CFEF74AB86C
:1067A00010B51421044600F05AFA204610BD00002E
:1067B00010B54FF47A73044608460021C4E901136A
:1067C000044B23600123207463741146FDF7FAFF24
:1067D000204610BD447E0D00007C0022FDF7FABF6C
:1067E000007CFDF7FFBF007CFEF72CB810B514222B
:1067F0000446002101F0D0F8204610BD10B5104C21
:1068000088B003A8FFF7F2FF2178BFF35B8F11F088
:10681000010111D120460191FDF74EFC019958B1BB
:1068200003AA0848FFF7C4FF2046FDF74AFC064AC2
:106830000649044800F00EFA024808B010BD00BF37
:10684000A0E70320A4E70320B8E6032039670D0082
:10685000002240681146FEF779B8002240681146D0
:10686000FEF794B8002240681146FEF79FB84068D2
:106870000022FEF793B84068002281F00101FEF784
:106880007DB8002340681A461946FEF76FB800230A
:1068900040681A461946FEF761B800224068114662
:1068A000FEF744B8406800220221FEF747B80023F3
:1068B00040681A46FEF732B8024B04225A60024A78
:1068C0001A607047B8E70320747E0D0010B50446C7
:1068D00001F0B7F8013823182046834206D9027820
:1068E000197800F8011B03F80129F6E710BD70B50F
:1068F0000C46911E2229054622D820466DB1B5FBD3
:10690000F2F602FB1655E9B2092D94BF303157312A
:10691000C9B200F8011B3546F0E702462344302196
:10692000934202D902F8011BFAE71A1A834238BFD0
:106930000022002383542046FFF7C8FF204670BD85
:106940000020FCE738B5031E0C4615460EDAB3F1FD
:10695000004F4FF02D0214BF5842184601230A7011
:106960002A461944FFF7C3FF204638BD0123F9E743
:10697000014B1860704700BF54E6032008B50B4B6D
:1069800043B1FFF73BFF03681B699847002801DD0F
:10699000AFF30080064B43B1FFF788FE03681B6925
:1069A0009847002801DDAFF3008008BD000000001B
:1069B0000000000008B5FFF7E1FFFDF723FE014BE3
:1069C000186008BDD4E703200248034A0349121A9D
:1069D00000F0BABF00F4032004F40320D87F0D00B8
:1069E00007B5002300931A466FF07701FDF774FF97
:1069F00003B05DF804FB000007B543880A2B08D0FC
:106A0000502B0BD1094B1B684BB103B05DF804EB65
:106A10001847FFF7E5FF03B05DF804FB0023009380
:106A20001A466FF07701FDF757FFF4E7C4E703203C
:106A300038B5124C1248134D0021FDF7EFFF2368C3
:106A4000AB42114B0CBF012200221A7002D0FFF79B
:106A5000BBFF2560FDF7C6FD044600F0A5FF0B4B0C
:106A600013B12046AFF3008000210848FDF74EFF28
:106A7000BDE8384006480021FDF724BF00F403209C
:106A800071690D001E1C279AC0E70320000000005A
:106A9000F9690D00232813B502D9002002B010BDFA
:106AA000A0F10B03022B1AD8174C2178BFF35B8F90
:106AB00011F001010BD120460191FDF7FDFA01997A
:106AC00028B11248FFF7E2FB2046FDF7FAFA0F4B18
:106AD0001878FDF71FFE0028DFD10120DEE701282E
:106AE00009D800F08FF80021007CFDF7E3FD80F06D
:106AF0000100C0B2D2E709380128EED8FFF7D6FD71
:106B0000007CFDF747FEF2E7C8E70320CCE703204F
:106B1000232838B504460D460AD8FF2908D0FFF7C8
:106B2000B9FF28B129462046BDE83840FDF77ABDB7
:106B300038BD38B504460D46FDF77CFDFF2810D062
:106B4000062804D84D2323FA00F0C30709D42046B1
:106B5000FFF7A0FF28B129462046BDE83840FDF7E1
:106B600071BD38BD10B50446FDF764FD031FDBB2EF
:106B7000012B08D92046FFF78DFF20B12046BDE844
:106B80001040FDF767BD002010BD2DE9F041002544
:106B900090462C460E46074630460121FFF7C9FFB6
:106BA00064B23846B8F1000F0ED1FFF7DBFFA84002
:106BB0000443002130460135FFF7BBFF082DE4B246
:106BC000EAD12046BDE8F081FFF7CCFFC5F107030D
:106BD0009840EDE738B50023202543801423044670
:106BE0000380856005610649284600F03CF80449A9
:106BF0006060284600F037F8E060204638BD00BFEE
:106C0000A87E0D0030B50F4D2978BFF35B8F11F0D2
:106C1000010487B013D12846FDF74EFA78B101A8D8
:106C2000FFF7D8FF01AA21460748FDF7C7FF28460E
:106C3000FDF747FA054A0649034800F00BF80248F9
:106C400007B030BDD8E70320DCE70320B8E6032017
:106C5000654B0D000B460146184600F067BEFDF778
:106C60001EBAFDF718BAFDF718BA000081F000410E
:106C700002E000BF83F0004330B54FEA41044FEA21
:106C8000430594EA050F08BF90EA020F1FBF54EABC
:106C9000000C55EA020C7FEA645C7FEA655C00F058
:106CA000E2804FEA5454D4EB5555B8BF6D420CDD29
:106CB0002C4480EA020281EA030382EA000083EAAC
:106CC000010180EA020281EA0303362D88BF30BD4C
:106CD00011F0004F4FEA01314FF4801C4CEA1131A2
:106CE00002D0404261EB410113F0004F4FEA033301
:106CF0004CEA133302D0524263EB430394EA050F8C
:106D000000F0A780A4F10104D5F1200E0DDB02FAFA
:106D10000EFC22FA05F2801841F1000103FA0EF28E
:106D2000801843FA05F359410EE0A5F120050EF154
:106D3000200E012A03FA0EFC28BF4CF0020C43FA85
:106D400005F3C01851EBE37101F0004507D54FF092
:106D5000000EDCF1000C7EEB00006EEB0101B1F5E2
:106D6000801F1BD3B1F5001F0CD349085FEA300028
:106D70004FEA3C0C04F101044FEA445212F5800F33
:106D800080F09A80BCF1004F08BF5FEA500C50F1D0
:106D9000000041EB045141EA050130BD5FEA4C0CB3
:106DA000404141EB0101013C28BFB1F5801FE9D210
:106DB00091F0000F04BF01460020B1FA81F308BF33
:106DC0002033A3F10B03B3F120020CDA0C3208DDFF
:106DD00002F1140CC2F10C0201FA0CF021FA02F1DA
:106DE0000CE002F11402D8BFC2F1200C01FA02F14A
:106DF00020FA0CFCDCBF41EA0C019040E41AA2BF6F
:106E000001EB0451294330BD6FEA04041F3C1CDA36
:106E10000C340EDC04F11404C4F1200220FA04F056
:106E200001FA02F340EA030021FA04F345EA030100
:106E300030BDC4F10C04C4F1200220FA02F001FAC2
:106E400004F340EA0300294630BD21FA04F0294644
:106E500030BD94F0000F83F4801306BF81F48011DD
:106E60000134013D4EE77FEA645C18BF7FEA655C50
:106E700029D094EA050F08BF90EA020F05D054EA22
:106E8000000C04BF1946104630BD91EA030F1EBF27
:106E90000021002030BD5FEA545C05D1400049412B
:106EA00028BF41F0004130BD14F580043CBF01F51E
:106EB000801130BD01F0004545F0FE4141F4700104
:106EC0004FF0000030BD7FEA645C1ABF19461046DF
:106ED0007FEA655C1CBF0B46024650EA013406BFE0
:106EE00052EA033591EA030F41F4002130BD00BF9F
:106EF00090F0000F04BF0021704730B54FF480645C
:106F000004F132044FF000054FF0000150E700BFDC
:106F100090F0000F04BF0021704730B54FF480643B
:106F200004F1320410F0004548BF40424FF0000128
:106F30003EE700BF42004FEAE2014FEA31014FEA6B
:106F400002701FBF12F07F4393F07F4F81F06051BA
:106F5000704732F07F4208BF704793F07F4F04BF05
:106F600041F40021704730B54FF4607401F00045E2
:106F700021F000411CE700BF50EA010208BF704742
:106F800030B54FF000050AE050EA010208BF704733
:106F900030B511F0004502D5404261EB41014FF49C
:106FA000806404F132045FEA915C3FF4D8AE4FF0A4
:106FB00003025FEADC0C18BF03325FEADC0C18BF87
:106FC000033202EBDC02C2F1200300FA03FC20FAD8
:106FD00002F001FA03FE40EA0E0021FA02F1144425
:106FE000BDE600BF70B54FF0FF0C4CF4E06C1CEA3E
:106FF00011541DBF1CEA135594EA0C0F95EA0C0FAF
:1070000000F0DEF82C4481EA030621EA4C5123EA21
:107010004C5350EA013518BF52EA033541F4801150
:1070200043F4801338D0A0FB02CE4FF00005E1FB03
:1070300002E506F00042E0FB03E54FF00006E1FB4D
:1070400003569CF0000F18BF4EF0010EA4F1FF0490
:10705000B6F5007F64F5407404D25FEA4E0E6D41D0
:1070600046EB060642EAC62141EA55514FEAC520E1
:1070700040EA5E504FEACE2EB4F1FD0C88BFBCF55D
:10708000E06F1ED8BEF1004F08BF5FEA500E50F10E
:10709000000041EB045170BD06F0004646EA0101D4
:1070A00040EA020081EA0301B4EB5C04C2BFD4EB06
:1070B0000C0541EA045170BD41F480114FF0000EFF
:1070C000013C00F3AB8014F1360FDEBF002001F06D
:1070D000004170BDC4F10004203C35DA0C341BDCE7
:1070E00004F11404C4F1200500FA05F320FA04F0B9
:1070F00001FA05F240EA020001F0004221F00041ED
:1071000010EBD37021FA04F642EB06015EEA430E5F
:1071100008BF20EAD37070BDC4F10C04C4F120058F
:1071200000FA04F320FA05F001FA04F240EA020042
:1071300001F0004110EBD37041F100015EEA430E13
:1071400008BF20EAD37070BDC4F1200500FA05F233
:107150004EEA020E20FA04F301FA05F243EA0203B2
:1071600021FA04F001F0004121FA04F220EA0200C1
:1071700000EBD3705EEA430E08BF20EAD37070BD07
:1071800094F0000F0FD101F00046400041EB0101E7
:1071900011F4801F08BF013CF7D041EA060195F0C9
:1071A000000F18BF704703F00046520043EB030383
:1071B00013F4801F08BF013DF7D043EA0603704770
:1071C00094EA0C0F0CEA135518BF95EA0C0F0CD07B
:1071D00050EA410618BF52EA4306D1D181EA0301C1
:1071E00001F000414FF0000070BD50EA410606BFBB
:1071F0001046194652EA430619D094EA0C0F02D100
:1072000050EA013613D195EA0C0F05D152EA033644
:107210001CBF104619460AD181EA030101F0004162
:1072200041F0FE4141F470014FF0000070BD41F0AB
:10723000FE4141F4780170BD70B54FF0FF0C4CF485
:10724000E06C1CEA11541DBF1CEA135594EA0C0FA4
:1072500095EA0C0F00F0A7F8A4EB050481EA030EF1
:1072600052EA03354FEA013100F088804FEA0333D8
:107270004FF0805545EA131343EA12634FEA0222A6
:1072800045EA111545EA10654FEA00260EF0004167
:107290009D4208BF964244F1FD0404F5407402D2B9
:1072A0005B084FEA3202B61A65EB03055B084FEA4A
:1072B00032024FF480104FF4002CB6EB020E75EB47
:1072C000030E22BFB61A754640EA0C005B084FEA6F
:1072D0003202B6EB020E75EB030E22BFB61A7546EC
:1072E00040EA5C005B084FEA3202B6EB020E75EB37
:1072F000030E22BFB61A754640EA9C005B084FEAAF
:107300003202B6EB020E75EB030E22BFB61A7546BB
:1073100040EADC0055EA060E18D04FEA051545EAAA
:1073200016754FEA06164FEAC30343EA52734FEA53
:10733000C2025FEA1C1CC0D111F4801F0BD141EACC
:1073400000014FF000004FF0004CB6E711F4801F31
:1073500004BF01430020B4F1FD0C88BFBCF5E06F11
:107360003FF6AFAEB5EB030C04BFB6EB020C5FEA21
:10737000500C50F1000041EB045170BD0EF0004E76
:107380004EEA113114EB5C04C2BFD4EB0C0541EAA8
:10739000045170BD41F480114FF0000E013C90E6A5
:1073A00045EA060E8DE60CEA135594EA0C0F08BF69
:1073B00095EA0C0F3FF43BAF94EA0C0F0AD150EA68
:1073C00001347FF434AF95EA0C0F7FF425AF1046FB
:1073D00019462CE795EA0C0F06D152EA03353FF423
:1073E000FDAE1046194622E750EA410618BF52EAA0
:1073F00043067FF4C5AE50EA41047FF40DAF52EA74
:1074000043057FF4EBAE12E74FF0FF3C06E000BF10
:107410004FF0010C02E000BF4FF0010C4DF804CD1D
:107420004FEA410C7FEA6C5C4FEA430C18BF7FEADD
:107430006C5C1BD001B050EA410C0CBF52EA430C0B
:1074400091EA030F02BF90EA020F0020704710F18B
:10745000000F91EA030F58BF994208BF90422CBF1A
:10746000D8176FEAE37040F0010070474FEA410C13
:107470007FEA6C5C02D150EA013C07D14FEA430C31
:107480007FEA6C5CD6D152EA033CD3D05DF8040BA2
:10749000704700BF8446104662468C4619466346D4
:1074A00000E000BF01B5FFF7B7FF002848BF10F1AB
:1074B000000F01BD4DF808EDFFF7F4FF0CBF0120F0
:1074C00000205DF808FB00BF4DF808EDFFF7EAFF6C
:1074D00034BF012000205DF808FB00BF4DF808ED27
:1074E000FFF7E0FF94BF012000205DF808FB00BF1C
:1074F0004DF808EDFFF7CEFF94BF012000205DF8A6
:1075000008FB00BF4DF808EDFFF7C4FF34BF0120B2
:1075100000205DF808FB00BF4A0011D212F50012EE
:1075200011D20DD56FF47873B3EB62520ED44FEADB
:10753000C12343F0004343EA505323FA02F070475B
:107540004FF00000704750EA013002D14FF0FF3099
:1075500070474FF0000070474FEA4102B2F1E0433C
:1075600024BFB3F5001CDCF1FE5C0DD901F0004C2A
:107570004FEAC0024CEA5070B2F1004F40EB83007A
:1075800008BF20F00100704711F0804F21D113F1A6
:107590003872BCBF01F00040704741F480114FEADF
:1075A0005252C2F11802C2F1200C10FA0CF320FA68
:1075B00002F018BF40F001004FEAC1234FEAD32385
:1075C00003FA0CFC40EA0C0023FA02F34FEA4303EF
:1075D000CCE77FEA625307D150EA01331EBF4FF078
:1075E000FE4040F44000704701F0004040F0FE4093
:1075F00040F40000704700BF53B94AB9002908BFE2
:1076000000281CBF4FF0FF314FF0FF3000F08CB965
:10761000ADF1080C6DE904CE00F024F8DDF804E0CB
:10762000DDE9022304B07047D0B50C4B00220646BA
:107630000F46FFF7D7FCFFF76FFF0446FFF758FC34
:10764000074B0022FFF7CEFC02460B463046394678
:10765000FFF710FBFFF760FF2146D0BD0000F03DB3
:107660000000F0412DE9F047089D04468C46002BB0
:1076700040F083808A42174647D9B2FA82F242B17B
:10768000C2F1200024FA00F09140974040EA010C3A
:1076900094404FEA1748230CBCFBF8F61FFA87FE0C
:1076A00008FB16C143EA014306FB0EF1994209D9D2
:1076B000FB1806F1FF3080F01981994240F21681E3
:1076C000023E3B445B1AA4B2B3FBF8F008FB103354
:1076D00044EA034400FB0EFEA64509D93C1900F11B
:1076E000FF3380F00581A64540F2028102383C4418
:1076F00040EA0640A4EB0E0400261DB1D44000234E
:10770000C5E900433146BDE8F08702B9FFDEB2FAB1
:1077100082F2002A50D1CB1B4FEA174E1FFA87F88E
:107720000126B3FBFEFC210C0EFB1C3341EA034196
:1077300008FB0CF38B4207D979180CF1FF3002D209
:107740008B4200F2E9808446C91AA3B2B1FBFEF075
:107750000EFB101143EA014408FB00F8A04507D9CD
:107760003C1900F1FF3302D2A04500F2D98018463F
:10777000A4EB080440EA0C40BFE78B4209D9002D76
:1077800000F0B1800026C5E9000130463146BDE871
:10779000F087B3FA83F6002E4AD18B4202D382429D
:1077A00000F2B880841A61EB030101208C46002DA1
:1077B000A8D0C5E9004CA5E7C2F1200320FA03F6E2
:1077C000974001FA02F04FEA174ED9403043030CBC
:1077D000B1FBFEF61FFA87F80EFB161143EA0143D0
:1077E00006FB08F1994204FA02F409D9FB1806F1E4
:1077F000FF3C80F08D80994240F28A80023E3B44FB
:107800005B1A81B2B3FBFEF00EFB103341EA034179
:1078100000FB08F38B4207D9791800F1FF3C73D2C3
:107820008B4271D902383944CB1A40EA064678E7D0
:10783000C6F1200C03FA06F422FA0CF31C4320FADA
:107840000CF701FA06F34FEA144E21FA0CF11F432C
:107850003B0CB1FBFEF91FFA84F80EFB191143EA49
:10786000014109FB08FA8A4502FA06F200FA06F31A
:1078700008D9611809F1FF3048D28A4546D9A9F1E3
:1078800002092144A1EB0A01BFB2B1FBFEF00EFBDD
:10789000101147EA014700FB08F8B84507D9E71976
:1078A00000F1FF312ED2B8452CD90238274440EAE6
:1078B0000940A7EB0807A0FB02894F45C646494689
:1078C0001AD317D05DB1B3EB0E0267EB010707FACD
:1078D0000CFCF2404CEA0202F740C5E90027002602
:1078E0003146BDE8F0872E4628460BE70646E9E616
:1078F0001846FDE64345E5D2B8EB020E69EB0401FC
:107900000138DFE70846D2E760468DE78146B9E7F0
:10791000664675E730464AE7ACF1020C394413E796
:1079200002383C4424E700BF704700BF10B5054C47
:1079300013462CB10A4601460220AFF3008010BD69
:107940002046FCE7000000000A44914200F1FF33AA
:1079500000D1704710B511F8014B03F8014F914267
:10796000F9D110BD884210B501EB020402D984425E
:10797000234607D8431EA14208D011F8012B03F873
:10798000012FF8E7024401468A4200D110BD13F8E6
:10799000014D02F8014DF7E702440346934200D13E
:1079A000704703F8011BF9E738B50D4B1D68AB6B49
:1079B00004467BB91820FDF711F80A4A0A4BA86360
:1079C000C0E90023094B83600B238381012200233C
:1079D000C0E90423AB6B00221C615A6138BD00BFB3
:1079E00054E603200E33CDAB34126DE6ECDE050019
:1079F000C9B2034610F8012B1AB18A42F9D11846D0
:107A00007047002918BF0023F9E710B50446FFF7B7
:107A1000EFFF18B9204600F014F8204410BD10F80C
:107A2000012B11F8013B012A28BF9A42F7D0D01A46
:107A30007047034611F8012B03F8012B002AF9D1F6
:107A40007047034613F8012B002AFBD1181A01389E
:107A5000704710B56AB10139841810F8013B11F86C
:107A6000012F934203D1A04201D0002BF5D1981AE7
:107A700010BD1046FCE738B503460C4669B9BDE8B1
:107A80003840FFF7B5BF431C054621461846FFF7AF
:107A9000AFFF0028F7D1284638BD0025F5E70000E4
:107AA0002DE9F0473A4E86468C4660461CF8014B5D
:107AB000A55D15F00805F8D12D2C33D19CF80040B8
:107AC0004FF0010800F1020C002B5CD0102B0CD100
:107AD000302C0AD19CF8000000F0DF0058284DD16E
:107AE0009CF8014010230CF1020C08F10047013F03
:107AF0000026B7FBF3F9304603FB197AA4F13005F1
:107B0000092D18D82C46A34224DD751C07D08145C9
:107B10001DD301D1A2451ADB00FB034001261CF84E
:107B2000014BEBE72B2C08BF9CF80040A84608BF90
:107B300000F1020CC8E7A4F14105192D01D8373C2A
:107B4000E1E7A4F16105192D04D8573CDBE74FF0BC
:107B5000FF36E4E7731C06D12223CEF80030384606
:107B600042B9BDE8F087B8F1000F00D04042002ACA
:107B7000F7D00EB10CF1FF311160F2E73024002B89
:107B8000B3D10823B1E7302CA4D00A23ADE700BF5E
:107B9000AA7E0D0013460A46014602480068FFF718
:107BA0007FBF00BF54E6032021400D005D400D0063
:107BB00085400D0089400D00000000006D65617377
:107BC0007572656454656D70657261747572654334
:107BD000310063757272656E7454656D7043202751
:107BE00000272E0050756C73696E672042726577AE
:107BF0002048656174657220666F72202700272017
:107C00006D696C6C697365636F6E64732E00000040
:107C10000000000000000000000000000000000064
:107C2000A5400D00C9400D0000000000000000004C
:107C3000D5400D0009410D00D55C0D00CB400D0075
:107C40000000000000000000474B0D003D4B0D0000
:107C5000334B0D00294B0D001D4B0D00114B0D003A
:107C60002D600D0035600D00054B0D00FD4A0D0027
:107C7000F34A0D00E94A0D0065600D0000000000A8
:107C800000000000654B0D00AF4B0D00874B0D0051
:107C9000674B0D008F4B0D00974B0D009F4B0D0058
:107CA000A74B0D000000000000000000F14B0D008C
:107CB000E14B0D00E34B0D00256400257500752593
:107CC00030347800626175640053657269616C00DC
:107CD00053657269616C31004A534F4E537472653B
:107CE000616D4C6F6748616E646C657200617070A5
:107CF00000253031307520005D20002C200028291F
:107D00003A2000205B00636F6465203D20002569F8
:107D10000064657461696C73203D20000D0A006D7C
:107D200000630066006C6E00666E007400636F6432
:107D3000650064657461696C00000000000000006B
:107D400000000000B7500D00DD500D009D500D00EB
:107D5000FB4C0D000000000000000000FD540D0071
:107D600015550D00D55C0D00CB400D000000000046
:107D70000000000029550D003D550D00795E0D00F5
:107D8000A5500D000000000000000000B5500D00DF
:107D9000EB500D00115C0D00A7500D00000000001D
:107DA00000000000B3500D00F9500D0069540D00A3
:107DB00015510D000000000000000000ED5F0D00F7
:107DC000F75F0D0001600D000B600D0015600D00E8
:107DD00021600D002D600D0035600D003D600D002F
:107DE00049600D0051600D005B600D0065600D0085
:107DF00025592D256D2D25645425483A254D3A25C4
:107E000053257A0061736374696D6500000000009A
:107E100000000000F1650D005D660D0035660D0087
:107E200059610D0005660D0021660D0013660D00F9
:107E30002F660D00F3650D00F7650D0000000000D2
:107E40000000000039670D00A1670D0077670D0085
:107E500059610D0069670D003B670D004B670D0010
:107E60009B670D005B670D0035670D00000000008B
:107E700000000000AF680D00A5680D009B680D00B4
:107E800051680D008F680D0083680D002D600D0096
:107E900035600D0077680D006F680D0065680D0096
:107EA0005B680D0065600D00000020202020202070
:107EB000202020282828282820202020202020209A
:107EC000202020202020202020208810101010109A
:107ED00010101010101010101010040404040404EA
:107EE00004040404101010101010104141414141CD
:107EF0004101010101010101010101010101010132
:107F000001010101011010101010104242424242C2
:107F10004202020202020202020202020202020201
:107F200002020202021010101020000000000000E7
:107F30000000000000000000000000000000000041
:107F40000000000000000000000000000000000031
:107F50000000000000000000000000000000000021
:107F60000000000000000000000000000000000011
:107F70000000000000000000000000000000000001
:107F800000000000000000000000000000000000F1
:107F900000000000000000000000000000000000E1
:107FA00000000000000000000000000001450D007E
:107FB000C14A0D00514B0D00C55C0D0045610D001F
:107FC00071620D00A1650D00DD650D00B9680D0041
:087FD00094F6FF7F01000000A0
:047FD80000000000A5
:107FDC000100000009000000000048438C7D0D00EA
:107FEC00A47D0D00047E0D0058E603200000000067
:107FFC000000000000000000000000000000000075
:10800C000000000000000000000000000000000064
:10801C000000000000000000000000000000000054
:10802C000000000000000000000000000000000044
:10803C000000000000000000000000000000000034
:0C804C0000000000000000000000000028
:10805800FFFFFFFF00000102030405060708090AE5
:108068000B0C0D0E0F101112131415161718191AE0
:088078001B1C1D1E1F20280027
:0480800078563412E8
:04000003D0004020C9
:00000001FF
